:020000040800F2
:10000000C0490020F1010008E1080008870300084A
:10001000DD0800087B020008E10D00080000000078
:10002000000000000000000000000000E50B0008D8
:100030007D02000800000000F9080008A10C00087B
:100040000B0200080B0200080B0200080B0200085C
:100050000B0200080B0200080B0200080B0200084C
:100060000B0200080B0200080B0200080B0200083C
:100070000B0200080B0200080B0200080B0200082C
:100080000B0200080B0200080B0200080B0200081C
:100090000B0200080B0200080B0200080B0200080C
:1000A0000B0200080B0200080B0200080B020008FC
:1000B0000B0200080B0200080B0200080B020008EC
:1000C0000B0200080B0200080B0200080B020008DC
:1000D0000B0200080B0200080B0200080B020008CC
:1000E0000B0200080B0200080B02000800000000D1
:1000F0000000000000000000000000000000000000
:1001000000000000000000000B0200080B020008C5
:100110000B0200080B0200080B0200080B0200088B
:100120000B0200080B0200080B0200080B0200087B
:100130000B0200080B0200080B0200080B0200086B
:100140000B0200080B0200080B0200080B0200085B
:10015000DFF80CD000F07EF8004800472D0F0008B3
:10016000C04900201A4B19680868B0E8F00F80F306
:1001700009884FF0000080F311884EF00D0E704793
:100180000000000003480068006880F3088862B639
:1001900000DF00BF08ED00E0EFF309800C4B1A68A8
:1001A00020E9F00F106008B54FF0BF0080F3118810
:1001B00001F0ECF84FF0000080F31188BDE8084032
:1001C00019680868B0E8F00F80F30988704700BF2D
:1001D0006800002001B44FF0BF0080F3118801BC1B
:1001E000704701B44FF0000080F3118801BC7047E4
:1001F0000648804706480047FEE7FEE7FEE7FEE7C1
:10020000FEE7FEE7FEE7FEE7FEE7FEE7A50C0008D7
:1002100051010008D2B201E000F8012B491EFBD2C7
:1002200070470022F6E710B504460846114602461C
:100230002046FFF7EFFF204610BD10B5044604E04E
:100240000B7800F8013B03B1491C521EF8D220463E
:1002500010BD0000064C074D06E0E06840F00103C9
:1002600094E8070098471034AC42F6D3FFF774FFC8
:100270006828000888280008FEE7FEE770470000AD
:100280002DE9F041CB78002503F00F02DB0601D504
:100290008B781A430B884FF00F0813F0FF0F4FF0C5
:1002A000010C1CD0D0F800400E880CFA05F31E405B
:1002B0009E4210D1AF0008FA07F624EA060602FAB9
:1002C00007F43443CE78282E02D0482E02D002E024
:1002D000436100E003616D1C082DE5D304600B88C9
:1002E000FF2B1DD94468002505F108060CFA06F31A
:1002F0000E881E409E420FD1AF0008FA07F624EA8E
:10030000060602FA07F43443CE78282E00D1436162
:10031000CE78482E00D103616D1C082DE4D34460D3
:10032000BDE8F081F0B5144C002801DAE36900E083
:100330006368420D120185B2C0F301579540C0F3C6
:100340000346032F05D0C2020AD50322B2409343CD
:1003500007E023F07062636823F07063636002E07B
:10036000AB4343F0706201B12A43002801DAE26135
:10037000F0BD6260F0BD0000000001400AB1016103
:10038000704741617047FEE770B50646002440F2B1
:100390003F11204600F002F900F030FA4FF4963594
:1003A000304600F011FA641CAC42F9D3BDE870404D
:1003B00001220421014800F019B80000000C01409E
:1003C00008B50121082000F0B1FA0420ADF80000C2
:1003D00003208DF8020010208DF8030069460248C2
:1003E000FFF74EFF08BD0000000C0140FFF7C6BF3D
:1003F000064B30B45B68203AD2B21C68DB885343AA
:1004000004EB430230BC00F021B800003C000020A7
:100410002DE9F04107460D4640F23F140A4E08E030
:1004200021463846FFF7E4FF70688088201A84B2BE
:100430006D1C2A78002A05D07168601C80B28988FA
:100440008842EDD2BDE8F0813C0000202DE9F74F55
:10045000064690460027019900F0A0F81C4D31E0B7
:1004600000F0CCF900244FF00C094FF0800A4FF057
:10047000010B17E0B0FBF9F1CA000AFA02F138F8F3
:1004800017202141114201D10C2805D90BFA04F1A2
:100490000A4203D10C2801D9688800E0288800F0BE
:1004A00093F9641C68688088A042E3D80122042183
:1004B0000848FFF79BFF761CF6B23046019900F022
:1004C0006DF87F1C6868C088B842C9D8BDE8FE8F47
:1004D0003C000020000C01400148406870470000CB
:1004E0003C00002010B586B00121112000F01EFA5A
:1004F00001212448FFF716FF0121C80300F0FEF98F
:100500004FF48060ADF8140003208DF81600182019
:100510001D4C8DF8170005A92046FFF7B1FEE01429
:10052000ADF8140005A92046FFF7AAFEA014ADF807
:10053000140005A92046FFF7A3FE144C204600F046
:100540007DFA0021ADF800104FF48270ADF8020082
:10055000ADF804100220ADF806000120ADF8080047
:100560004002ADF80C10ADF80A00ADF80E10694667
:10057000204600F096FA0121204600F055FA06B018
:1005800010BD00000011200000100140003C0040A0
:1005900001494880704700003C00002010B50C461F
:1005A0000146202000F034F92146BDE8104021200A
:1005B00000F02EB901490880704700003C0000207F
:1005C00010B5FFF7FDFEFFF78DFF052000F092FC50
:1005D0004FF40041E52000F01BF90121002000F05C
:1005E00017F94FF48071012000F012F94FF4E06127
:1005F000022000F00DF941F23001032000F008F96B
:100600000021042000F004F940F20221082000F04B
:10061000FFF80021092000F0FBF800210A2000F07B
:10062000F7F800210C2000F0F3F800210D2000F075
:10063000EFF800210F2000F0EBF80021102000F06F
:10064000E7F80021112000F0E3F80021122000F06B
:10065000DFF80021132000F0DBF8142000F04AFC42
:1006600041F2B071102000F0D3F840F237111120A0
:1006700000F0CEF8052000F03DFC40F239111220C8
:1006800000F0C6F8052000F035FC4FF4E8511320C7
:1006900000F0BEF81321292000F0BAF8052000F080
:1006A00029FC0021202000F0B3F80021212000F0D7
:1006B000AFF80621302000F0ABF840F201113120F4
:1006C00000F0A6F80321322000F0A2F84FF4837165
:1006D000352000F09DF840F60231362000F098F801
:1006E00040F20231372000F093F840F207713820D1
:1006F00000F08EF80721392000F08AF84FF4C0612D
:100700003C2000F085F840F20B213D2000F080F8FD
:100710000021502000F07CF8EF21512000F078F803
:100720000021522000F074F840F23F11532000F0F5
:100730006FF84FF41C51602000F06AF8012161202D
:1007400000F066F800216A2000F062F800218020A5
:1007500000F05EF80021812000F05AF8002182208C
:1007600000F056F80021832000F052F80021842088
:1007700000F04EF80021852000F04AF8102190206A
:1007800000F046F80021922000F042F80321932067
:1007900000F03EF84FF48871952000F039F8002100
:1007A000972000F035F80021982000F031F841F250
:1007B0001801032000F02CF8BDE8104040F273113E
:1007C000072000F025B8000070B50B4D0446010A63
:1007D000284600F064F98021284600F059F90028E5
:1007E000F9D1E1B2284600F05AF98021284600F0FC
:1007F0004FF90028F9D170BD003C004010B522200F
:1008000000F02EF8BDE81040722000F04FB8000054
:1008100070B50C4600F024F8722000F047F80E4D39
:10082000210A284600F03BF98021284600F030F9E3
:100830000028F9D1E1B2284600F031F9802128469C
:1008400000F026F90028F9D1BDE87040012204210A
:100850000248FFF7CBBD0000003C0040000C014007
:1008600070B50546702000F021F80E4C002120469E
:1008700000F015F98021204600F00AF90028F9D18E
:100880002946204600F00BF98021204600F000F9AF
:100890000028F9D1BDE87040012204210248FFF789
:1008A000A5BD0000003C0040000C014010B504460E
:1008B000002204210748FFF799FD2146064C2046F7
:1008C00000F0EDF88021204600F0E2F80028F9D190
:1008D00010BD0000000C0140003C0040FEE7FEE7B8
:1008E0007047000002490843024908607047000051
:1008F0000000FA050CED00E0FFF74EBC044A0029A9
:10090000D16901D0014300E08143D161704700000B
:1009100000100240044A0029116901D0014300E09F
:10092000814311617047000000100240044A002911
:10093000916901D0014300E081439161704700005B
:1009400000100240044A0029D16801D0014300E0B0
:100950008143D160704700000010024070B52D49FE
:100960004A682D4B12F00C0204D02C4D042A03D0FF
:10097000082A03D0036029E0056027E04A684B6835
:1009800002F47012920C03F480330D2A01D0921CF1
:1009900000E00622BBB1CB6ACC6A13F4803F04F0BE
:1009A0000F0404F101040AD0CB6AC3F30316CB6A27
:1009B000761CB5FBF6F5C3F303239B1C5D43B5FB27
:1009C000F4F35343D6E7164B5A4302604A68154B7B
:1009D00002F0F00212099C5C0268E24042604C683E
:1009E00004F4E064240A1C5D22FA04F484604C6878
:1009F00004F46054E40A1B5DDA40C2604968094BA4
:100A000001F44041890B1B1F595CB2FBF1F10161FC
:100A100070BD00000010024000127A0040787D0195
:100A200000093D00040000200029018802D041F0A7
:100A3000400101E021F0400101807047114910B5EB
:100A400088420AD1841401212046FFF77BFF20460B
:100A5000BDE810400021FFF775BF0B49884202D165
:100A60000121041404E0094988420AD10121C41378
:100A70002046FFF74FFF2046BDE810400021FFF75A
:100A800049BF10BD0030014000380040003C00402C
:100A90000246002012890A4200D00120704781815D
:100AA000704730B502884C8802F441530A88CD88DB
:100AB00022438C882C4322430C8922434C892243B5
:100AC0008C892243CC8922431A430280828B22F4F0
:100AD00000628283098A018230BD000010B5FFF7F1
:100AE0006FFD0248A0F10801486010BD44000020DD
:100AF000F8B50E46044623492248091D50F8240043
:100B000051F82410084340F001000121FFF70EFFC7
:100B10004CB901210820FFF705FC1A480121001FEC
:100B20000068FFF7EBFE18208DF8030015486946B2
:100B3000083830F81400ADF8000003208DF80200EA
:100B4000114850F82400FFF79BFB04208DF80300A8
:100B50000C486946801F30F81400ADF800000A48C0
:100B6000001D50F82400FFF78BFB074D31462D1F69
:100B700055F8240000F0D6F855F82400012100F0C3
:100B8000BFF8F8BD4C1600081800002038B5044620
:100B90000C48012150F82400FFF7C8FE09486946B7
:100BA0000A3830F81400ADF8000010208DF803006A
:100BB00003208DF80200044850F82400FFF760FB82
:100BC00038BD00007C160008200000200349044ABC
:100BD00031F8101052F820000161704772160008B9
:100BE00020000020FFF7BEBA29480021026842F425
:100BF000803202604FF4A063026801F1010112F437
:100C0000003F01D19942F7D1016889033FD52149BD
:100C10000A6842F010020A600A6822F003020A60C1
:100C20000A6842F002020A6041684160416841601E
:100C3000416841F480614160C16A174A1140C16254
:100C4000C16A164A1143C162016841F080610160C6
:100C500001680901FCD5416821F47C1141604168BB
:100C600041F4E8114160016841F080710160016860
:100C70008901FCD5416821F003014160416841F0E0
:100C8000020141604168C1F381010229FAD1704734
:100C9000001002400020024000F0FEFF4406010068
:100CA00000F0B8BB124810B5016841F001010160C5
:100CB0004168104A1140416001680F4A11400160CB
:100CC000016821F480210160416821F4FE01416046
:100CD000016821F0A05101604FF47F018160002183
:100CE000C162FFF781FF05494FF00060086010BD49
:100CF000001002400000FFF0FFFFF6FE08ED00E0EC
:100D00000029818902D041F4005101E021F4005111
:100D1000818170470246002012880A4200D00120DB
:100D20007047000030B50446008A85B00D464CF689
:100D3000FF710840E98801432182A1894EF6F31032
:100D40000140A8882A8910436A890A431043A08178
:100D5000A08A4FF6FF410840A9890143A182684655
:100D6000FFF7FCFD1B48844201D1039800E0029884
:100D7000A1890904002900EBC00101EB00102968DA
:100D800002DA4FEA410101E04FEA8101B0FBF1F0E4
:100D90006422B0FBF2F14FEA01114FEA11136FF038
:100DA00018056B4300EB8300A3891D044FF0320349
:100DB00006D503EBC000B0FBF2F000F0070005E041
:100DC00003EB0010B0FBF2F000F00F0008432081AD
:100DD00005B030BD00380140C1F308018180704783
:100DE000FEE700000FB4054B10B503A9044A0298B2
:100DF00000F017F810BC5DF814FB0000090F0008A4
:100E0000A400002002E008C8121F08C1002AFAD17D
:100E100070477047002001E001C1121F002AFBD17A
:100E200070472DE9F84F05469246994688460027B7
:100E300059E0252801D0514623E0002215F8011F72
:100E400010462E2915D115F8011F04222A290DD08C
:100E50006FF02F032978A1F13004092C09D800EB99
:100E6000800003EB400008446D1CF3E758F8040BC6
:100E70006D1C2B7873B3632B08D0732B10D05146A5
:100E800018464A46904707F101072BE058F8043B03
:100E90008DF8003000218DF801106E46012103E02D
:100EA00058F8046B4FF0FF3152074FF0000401D4A3
:100EB00009E0641C84420BDA8C42FADB325D002AC2
:100EC000F7D105E0641C8C42FCDB305D0028F9D1D1
:100ED000274405E00AE016F8010B51464A469047C0
:100EE000641EF8D26D1C28780028A2D13846BDE8CF
:100EF000F88F00000349484300E0401E0028FCD161
:100F000070470000A086010070B5074D0446C1B2CD
:100F10002846FFF761FF40212846FFF7FBFE002827
:100F2000F9D0204670BD0000004400407FB500208D
:100F3000FFF72CFE0120FFF729FE0220FFF726FE17
:100F40000320FFF723FE33484FF4E1310024016012
:100F50008480C480048184810C2141810146204623
:100F6000FFF7C6FDFFF7BAFD4FF6FF752846FFF7FE
:100F70000BFA1F20FFF70CFB2846FFF71BFBFFF7C0
:100F8000ABFA25A10020FFF743FAFFF7A5FAC088C6
:100F900027A1C0B2FFF73CFAFFF79EFAC0882AA14A
:100FA0004006000EFFF734FA1BA12DA0FFF71AFF31
:100FB0001FA12DA0FFF716FF23A12CA0FFF712FF02
:100FC0000020FFF703FE0120FFF700FE0220FFF7DD
:100FD000FDFD0320FFF7FAFD4FF44070FFF782FCA0
:100FE0000225CDE9005402940023802221A1234848
:100FF000039400F01FFACDE90054029400238022EC
:101000001FA12148039400F015FA00F095F904B0EF
:10101000002070BDA80000202053544D33322043DF
:101020006F6E6E65637469766974792000000000E4
:10103000204C696E65204465766963652072756E23
:101040006E696E6700000000206F6E2053544D33B0
:10105000323130432D4556414C2020200000000005
:101060000A0D202573000000202573002025730A37
:101070000D0000004D795461736B0000DF0800081B
:101080004164645461736B007902000870B5134CBD
:101090006068002821D000F071F9114D2868C0B1B6
:1010A00000F07CFA00F0BEF8E868C568281D00F082
:1010B000A7F8A068401EA0606068401E606000F055
:1010C000BBF8286B00F0C2F82846BDE8704000F07D
:1010D000BDB8BDE8704000F061BA70BD6800002086
:1010E00094450020044C00BFFFF7D0FF2068012882
:1010F000FAD900F0C9F8F7E7B84400202DE9F0412B
:101100000446002500F03AF9264800F10802436839
:1011100000F110015BB9244B0027C2E900374FF4FE
:101120008846C1E90076C3E900160123436044F212
:10113000FF3394B31034660704D004F00706C6F1F9
:1011400008063444661E9E4227D2164E136808369F
:1011500001E01E4613465A68A24202D21A68002ACB
:10116000F7D18B4219D0356819683160596810354C
:10117000091B20290DD91A1951600A495C600831F0
:10118000566800E021460C686768B742FAD31460DD
:101190000A6059680268511A016000F0FFF9284698
:1011A000BDE8F0814C000020B800002010B5031FFE
:1011B0004FF08074A0F120001C6081614FF00001AD
:1011C000416140F8202910BD00F108014FF0FF32C5
:1011D000C0E90112C1600161002101607047002176
:1011E00001617047426853684B6043688B60536885
:1011F00099605160416008610168491C0160704755
:10120000D0E901128A60D0E90112516001694A688F
:10121000824201D182684A60002202610868401E51
:101220000860704710B5FEF7D5FF02480168491CF9
:10123000016010BD6400002003490868401E08607A
:1012400001D1FEF7CEBF70476400002010B5002822
:1012500017D0A0F1100400F091F80A48616800E08E
:101260001046026853688B42FAD322600460054836
:1012700061680838026811440160BDE8104000F060
:101280008DB910BD5400002002494FF08050086015
:101290007047000004ED00E02DE9F041244CE069C6
:1012A00020B1206A401C2062BDE8F081E068401C4B
:1012B000E060E0684FF0FF3670B9606BA16B61636E
:1012C000A063A06A401CA062606B0068A8B1606B5C
:1012D000C068C06840682063E068216B8842E3D33F
:1012E000144F606B006850B1606BC068C568E168FE
:1012F0006868814205D22063D6E72663ECE726635F
:10130000D2E7281DFFF77CFFA86A18B105F1180085
:10131000FFF776FFE86A6169884200D9606100EBF7
:10132000800007EB8000291DFFF75CFFD9E7000074
:1013300068000020B84400201FB5002400940194E8
:1013400002942346802209A10A48039400F072F80F
:10135000012809D1FEF73EFF074801218161C460E1
:10136000BDE81F4000F038B81FBD000049444C459F
:1013700000000000E5100008680000200248C16974
:10138000491CC16170470000680000201048C26914
:10139000104922B1012141627047521E42614269E7
:1013A00002EB820251F82220002A4269F5D002EBBA
:1013B000820201EB82014A68526801F108034A6027
:1013C0009A4201D152684A60D168016070470000BA
:1013D00068000020B84400200B4810B5016841F4B3
:1013E0007F010160016841F07F4101604FF0E02022
:1013F0000649416107210161054900200860FEF7A7
:10140000C1FE002010BD000020ED00E03F190100EA
:1014100064000020064910B54FF080500860FEF7C8
:10142000D9FEFFF739FFBDE81040FEF7DABE000035
:1014300004ED00E02DE9FF5F8346DDE90E688A4692
:1014400015464820109FFFF759FE04004DD0A80014
:101450008146E7B338462063D0B3A5224946FEF75C
:10146000D9FE6FF0030101EB8501206B354608447E
:1014700020F007075146102204F13400FEF7DDFE8C
:10148000002084F84300082D00D30725E562201DC5
:101490006564FFF7A4FE04F11800FFF7A0FEC5F194
:1014A00008012461A161646259463846039AFFF736
:1014B0007DFE2060B8F1000F01D0C8F80040FFF7B2
:1014C000B1FE344DA868401CA860286801E006E021
:1014D00008E0DFF8C48058B1A86990B337E0FFF79F
:1014E0000DFEB8E72046FFF7B1FE4FF0FF344CE0A9
:1014F0002C60A86801282AD15FF0000707EB87015C
:1015000008EB8100FFF760FE7F1C082FF6D322480E
:10151000A030FFF759FE2048B430FFF755FE1E48B3
:10152000C830FFF751FE1C48DC30FFF74DFE1A486B
:10153000F030FFF749FE1848A03068631430A86304
:1015400005E0FFE72868C06AB04200D82C60E06A76
:101550002969884200D92861E96A491CE9626969F8
:10156000884200D9686100EB800108EB8100211DF1
:10157000FFF738FE0124FFF75FFEA86928B128684D
:10158000C06AB04201D2FFF77FFE04B02046BDE83A
:10159000F09F000068000020B84400202DE9F047CB
:1015A0000027FFF73FFE254CE069401EE061E0693F
:1015B00098BBA06888B3DFF888800026A8F1C80926
:1015C0001AE0C068C56805F11800FFF719FE281D6C
:1015D000FFF716FEE86A6169884200D9606100EB96
:1015E000800109EB8100291DFFF7FCFDE86A2168F5
:1015F000C96A884200D30126D8F800104046002965
:10160000DFD1206A28B909E0FFF746FE206A401EB4
:101610002062206A0028F7D105E009E0012E02D0FF
:10162000606A012804D1002001276062FFF72CFEC8
:10163000FFF702FE3846BDE8F08700006800002092
:101640008045002020004000000002002000000033
:101650002000000001000020000201000020000224
:1016600000000200010000000D0009000600280033
:10167000170080000020080010000000200000007B
:1016800020000000200000002000000004000000F6
:101690001000000008000000000000000000000032
:1016A000000000000000000000000000000000003A
:1016B000000000000000000000000000000000002A
:1016C0000000000000000000000080018001800197
:1016D0008001800180018001800180018001800102
:1016E00080018001000000008001800100000000F6
:1016F000000000000000000000000000CC00CC0052
:10170000CC00CC00CC00CC000000000000000000A9
:1017100000000000000000000000000000000000C9
:1017200000000000000000000000000000000000B9
:1017300000000000600C600C600C30063006FE1FDC
:10174000FE1F300638071803FE1FFE1F180318037C
:101750008C018C018C01000000008000E003F80F78
:101760009C0E8C1C8C188C009800F801E007800EF1
:10177000801C8C188C189C18B80CF00FE0038000AB
:1017800080000000000000000000000000000E18B3
:101790001B0C110C11061106110311039B018E0184
:1017A000C038C06C60446044304430441844186C05
:1017B0000C380000000000000000E001F0033807D2
:1017C000180618063003F001F000F8009C310E33C3
:1017D000061E061C061C063FFC73F02100000000DC
:1017E0000000000000000000000000000C000C00E1
:1017F0000C000C000C000C000000000000000000B9
:1018000000000000000000000000000000000000D8
:101810000000000000000000000000020003800142
:10182000C000C000600060003000300030003000B8
:10183000300030003000300060006000C000C000A8
:101840008001000300020000000020006000C000D2
:101850008001800100030003000600060006000668
:101860000006000600060006000300038001800158
:10187000C000600020000000000000000000000028
:1018800000000000C000C000D806F807E0013003E7
:101890003807000000000000000000000000000009
:1018A0000000000000000000000000000000000038
:1018B0000000000080018001800180018001FC3F68
:1018C000FC3F800180018001800180010000000058
:1018D0000000000000000000000000000000000008
:1018E00000000000000000000000000000000000F8
:1018F00000000000000000000000800180010001E5
:101900000001800000000000000000000000000056
:1019100000000000000000000000000000000000C7
:10192000E007E007000000000000000000000000E9
:1019300000000000000000000000000000000000A7
:101940000000000000000000000000000000000097
:1019500000000000000000000000C000C000000007
:1019600000000000000000000000000C000C000659
:1019700000060006000300030003800380018001CD
:101980008001C000C000C0006000600000000000D6
:1019900000000000000000000000E003F007380E27
:1019A000180C0C180C180C180C180C180C180C1817
:1019B0000C180C18180C380EF007E003000000009B
:1019C0000000000000000000000000018001C001D4
:1019D000F00198018801800180018001800180016F
:1019E00080018001800180018001800100000000F1
:1019F00000000000000000000000E003F80F180CD9
:101A00000C180C1800180018000C000600038001C8
:101A1000C000600030001800FC1FFC1F0000000028
:101A200000000000000000000000E001F807180EB0
:101A30000C0C0C0C000C0006C003C007000C0018B6
:101A400000180C180C18180CF807E0030000000030
:101A500000000000000000000000000C000E000F5D
:101A6000000F800DC00C600C600C300C180C0C0CBE
:101A7000FC3FFC3F000C000C000C000C00000000C0
:101A800000000000000000000000F80FF80F180030
:101A900018000C00EC03FC071C0E001C00180018BA
:101AA00000180C181C0C180EF807E00300000000CA
:101AB00000000000000000000000C007F00F381C0C
:101AC000181818000C00CC03EC0F3C0E1C1C0C1852
:101AD0000C180C18181C380EF007E003000000006A
:101AE00000000000000000000000FC1FFC1F000CB4
:101AF00000060006000380038001C001C000E00072
:101B00006000600070003000300030000000000015
:101B100000000000000000000000E003F007380EA5
:101B2000180C180C180C3806F007F007180C0C18D5
:101B30000C180C180C18380CF80FE003000000000B
:101B400000000000000000000000E003F007380E75
:101B50001C0C0C180C180C181C1C381EF81BE01957
:101B60000018000C000C1C0EF807F001000000002B
:101B70000000000000000000000000000000000065
:101B80000000000080018001000000000000000053
:101B90000000000000000000800180010000000043
:101BA0000000000000000000000000000000000035
:101BB0000000000080018001000000000000000023
:101BC0000000000000000000800180010001000111
:101BD0008000000000000000000000000000000085
:101BE00000000000000000000010001C800FE00357
:101BF000F8001800F800E003800F001C001000003F
:101C000000000000000000000000000000000000D4
:101C10000000000000000000F81F000000000000AD
:101C2000F81F00000000000000000000000000009D
:101C300000000000000000000000000000000000A4
:101C4000000000000000000008003800F001C0079C
:101C5000001F0018001FC007F00138000800000036
:101C600000000000000000000000E003F80F180C66
:101C70000C180C180018000C000600038001C000AE
:101C8000C000C00000000000C000C0000000000054
:101C9000000000000000000000000000E00718182D
:101CA0000420C229224A1144094409440944092252
:101CB0001113E20C024004201818E0070000000095
:101CC0000000000000000000000080038003C00648
:101CD000C006C006600C600C301830183018F83F91
:101CE000F83F1C700C600C6006C006C000000000CD
:101CF00000000000000000000000FC03FC0F0C0CC2
:101D00000C180C180C180C0CFC07FC0F0C180C30E1
:101D10000C300C300C300C18FC1FFC0700000000CD
:101D200000000000000000000000C007F01F38386D
:101D30001C300C7006600600060006000600060057
:101D4000060006600C701C30F01FE0070000000069
:101D500000000000000000000000FE03FE0F060E61
:101D600006180618063006300630063006300630F3
:101D7000063006180618060EFE0FFE0300000000CF
:101D800000000000000000000000FC3FFC3F0C00D1
:101D90000C000C000C000C00FC1FFC1F0C000C00C5
:101DA0000C000C000C000C00FC3FFC3F000000008D
:101DB00000000000000000000000F83FF83F18009D
:101DC0001800180018001800F81FF81F1800180055
:101DD0001800180018001800180018000000000073
:101DE00000000000000000000000E00FF83F3C7819
:101DF0000E6006E007C00300030003FE03FE03C0FD
:101E000007C006C00EC03CF0F83FE00F0000000025
:101E1000000000000000000000000C300C300C300E
:101E20000C300C300C300C30FC3FFC3F0C300C30D4
:101E30000C300C300C300C300C300C30000000003A
:101E4000000000000000000000008001800180010F
:101E5000800180018001800180018001800180017A
:101E6000800180018001800180018001000000006C
:101E70000000000000000000000000060006000650
:101E80000006000600060006000600060006000622
:101E90000006180618063807F003E00100000000ED
:101EA0000000000000000000000006300618060CCC
:101EB000060606038601C60066007600DE008E0177
:101EC00006030606060C0618063006600000000031
:101ED00000000000000000000000180018001800BA
:101EE0001800180018001800180018001800180032
:101EF0001800180018001800F81FF81F0000000054
:101F0000000000000000000000000EE01EF01EF0C7
:101F10001EF036D836D836D836D866CC66CC66CCE5
:101F2000C6C6C6C6C6C6C6C686C386C300000000EF
:101F3000000000000000000000000C301C303C30AD
:101F40003C306C306C30CC30CC308C310C330C33BA
:101F50000C360C360C3C0C3C0C380C3000000000ED
:101F600000000000000000000000E007F81F1C381F
:101F70000E70066003C003C003C003C003C003C0EB
:101F800003C006600E701C38F81FE0070000000058
:101F900000000000000000000000FC0FFC1F0C38D7
:101FA0000C300C300C300C300C18FC1FFC070C00F3
:101FB0000C000C000C000C000C000C0000000000D9
:101FC00000000000000000000000E007F81F1C38BF
:101FD0000E70066003E003C003C003C003C003C06B
:101FE00007E006630E3F1C3CF83FE0F700C000002E
:101FF00000000000000000000000FE0FFE1F063879
:102000000630063006300638FE1FFE0706030606B9
:10201000060C0618061806300630066000000000A0
:1020200000000000000000000000E003F80F1C0C9E
:102030000C180C180C001C00F803E00F001E0038F0
:10204000063006300E301C1CF80FE00700000000C0
:1020500000000000000000000000FE7FFE7F800105
:102060008001800180018001800180018001800168
:10207000800180018001800180018001000000005A
:10208000000000000000000000000C300C300C309C
:102090000C300C300C300C300C300C300C300C3060
:1020A0000C300C300C301818F81FE007000000004E
:1020B0000000000000000000000003600630063051
:1020C00006300C180C180C18180C180C380E3006AA
:1020D0003006700760036003C001C001000000000B
:1020E000000000000000000000000360C361C36145
:1020F000C3616633663366336633663366336C1B9F
:102100006C1B6C1B2C1A3C1E380E380E0000000095
:10211000000000000000000000000FE00C7018300C
:102120003018700C600EC00780038003C003E00607
:10213000700C301C18180C300E6007E00000000016
:102140000000000000000000000003C006600C302A
:102150001C383818300C6006E007C003800180018D
:102160008001800180018001800180010000000069
:1021700000000000000000000000FC7FFC7F006009
:1021800000300018000C000600038001C000600051
:10219000300018000C000600FE7FFE7F00000000EB
:1021A00000000000000000000000E003E003600009
:1021B000600060006000600060006000600060001F
:1021C000600060006000600060006000600060000F
:1021D0006000E003E0030000000030003000600019
:1021E00060006000C000C000C000C001800180012C
:1021F0008001000300030003000600060000000049
:1022000000000000000000000000E003E003000305
:1022100000030003000300030003000300030003A6
:102220000003000300030003000300030003000396
:102230000003E003E003000000000000C001C00153
:1022400060036003600330063006180C180C0000B1
:10225000000000000000000000000000000000007E
:10226000000000000000000000000000000000006E
:10227000000000000000000000000000000000005E
:1022800000000000000000000000FFFFFFFF000052
:10229000000000000000000000000C000C000C001A
:1022A0000C000C000C00000000000000000000000A
:1022B000000000000000000000000000000000001E
:1022C000000000000000000000000000000000000E
:1022D00000000000F003F8071C0C0C0C000FF00FBE
:1022E000F80C0C0C0C0C1C0FF80FF0180000000080
:1022F0000000000000000000000018001800180096
:1023000018001800D803F80F380C181818181818E7
:10231000181818181818380CF80FD8030000000007
:1023200000000000000000000000000000000000AD
:1023300000000000C003F007300E180C1800180051
:1023400018001800180C300EF007C0030000000041
:102350000000000000000000000000180018001835
:1023600000180018C01BF01F301C18181818181877
:10237000181818181818301CF01FC01B0000000097
:10238000000000000000000000000000000000004D
:1023900000000000C003F00F300C1818F81FF81FE1
:1023A000180018003818301CF00FC007000000009B
:1023B00000000000000000000000800FC00FC000FF
:1023C000C000C000F007F007C000C000C000C0009F
:1023D000C000C000C000C000C000C000000000007D
:1023E00000000000000000000000000000000000ED
:1023F00000000000E00DF80F180E0C0C0C0C0C0C7B
:102400000C0C0C0C0C0C180EF80FE00D000C0C0C46
:102410001C06F807F0010000000018001800180062
:1024200018001800D807F80F381C181818181818B2
:10243000181818181818181818181818000000007C
:1024400000000000000000000000C000C00000000C
:1024500000000000C000C000C000C000C000C000FC
:10246000C000C000C000C000C000C00000000000EC
:1024700000000000000000000000C000C0000000DC
:1024800000000000C000C000C000C000C000C000CC
:10249000C000C000C000C000C000C000C000C0003C
:1024A000C000F8007800000000000C000C000C00D8
:1024B0000C000C000C0C0C060C038C01CC006C0006
:1024C000FC009C018C030C030C060C0C00000000AB
:1024D00000000000000000000000C000C000C000BC
:1024E000C000C000C000C000C000C000C000C000EC
:1024F000C000C000C000C000C000C000000000005C
:1025000000000000000000000000000000000000CB
:10251000000000007C3CFF7EC7E383C183C183C110
:1025200083C183C183C183C183C183C10000000013
:10253000000000000000000000000000000000009B
:10254000000000009807F80F381C18181818181801
:10255000181818181818181818181818000000005B
:10256000000000000000000000000000000000006B
:1025700000000000C003F00F300C181818181818CD
:10258000181818181818300CF00FC00300000000BD
:10259000000000000000000000000000000000003B
:1025A00000000000D803F80F380C18181818181875
:1025B000181818181818380CF80FD8031800180035
:1025C00018001800180000000000000000000000C3
:1025D00000000000C01BF01F301C18181818181835
:1025E000181818181818301CF01FC01B00180018F5
:1025F0000018001800180000000000000000000093
:1026000000000000B007F003700030003000300020
:10261000300030003000300030003000000000009A
:1026200000000000000000000000000000000000AA
:1026300000000000E003F003380E180C3800F0032F
:10264000C007000C180C380EF007E0030000000073
:102650000000000000000000000000008000C0003A
:10266000C000C000F007F007C000C000C000C000FC
:10267000C000C000C000C000C0078007000000000C
:10268000000000000000000000000000000000004A
:10269000000000001818181818181818181818181A
:1026A000181818181818381CF01FE019000000003E
:1026B000000000000000000000000000000000001A
:1026C000000000000C18180C180C180C300630060E
:1026D0003006600360036003C001C0010000000019
:1026E00000000000000000000000000000000000EA
:1026F00000000000C141C141C36163636363636360
:102700003636363636361C1C1C1C1C1C00000000DD
:1027100000000000000000000000000000000000B9
:10272000000000001C38381C300C60066003600399
:10273000600360036006300C381C1C380000000089
:102740000000000000000000000000000000000089
:10275000000000001830301830187018600C600C41
:10276000E00CC006C0068003800380038001800166
:10277000C001F00070000000000000000000000038
:1027800000000000FC1FFC1F000C0006000380017D
:10279000C000600030001800FC1FFC1F000000009B
:1027A0000000000000000000000000038001C000E5
:1027B000C000C000C000C000C00060006000300069
:1027C00060004000C000C000C000C000C000C000E9
:1027D00080010003000000000000800180018001F2
:1027E00080018001800180018001800180018001E1
:1027F00080018001800180018001800180018001D1
:10280000800180018001000000006000C000C00164
:102810008001800180018001800100030003000627
:10282000000300018001800180018001800180019E
:10283000C000600000000000000000000000000078
:102840000000000000000000F010F81F080F00005A
:102850000000000000000000000000000000000078
:102860000000000000000000882800080000002090
:10287000A8000000040E000830290008A80000206D
:1028800018490000140E00080204060800000000A9
:102890000102030401020304060708090044004082
:1028A00000140140001401400014014000140140D4
:1028B00000140140001401400008014000100140D4
:1028C000000C01400000FFFF000000009816000807
:1028D000100018000044000000000000000000008C
:1028E000000000000000000000000000AAAAAAAA40
:1028F00000000000000000000000000000000000D8
:1029000000000000000000000000000000000000C7
:1029100000000000000000000000000000000000B7
:10292000FFFFFFFF000000000000000000000000AB
:04000005080001519D
:00000001FF
