:020000040800F2
:10000000284A0020F1010008EF0A00088F050008C7
:10001000E50A00089D0300084D17000800000000D5
:10002000000000000000000000000000910E000829
:100030002D04000800000000890B0008290F0008AB
:100040000B0200080B0200080B0200080B0200085C
:100050000B0200080B0200080B0200080B0200084C
:100060000B0200080B0200080B0200080B0200083C
:100070000B0200080B0200080B0200080B0200082C
:100080000B0200080B0200080B0200080B0200081C
:100090000B0200080B0200080B0200080B0200080C
:1000A0000B0200080B0200080B0200080B020008FC
:1000B0000B0200085D1000080B0200080B0200088C
:1000C0000B0200080B0200080B0200080B020008DC
:1000D0000B0200080B0200080B0200080B020008CC
:1000E0000B0200080B0200080B02000800000000D1
:1000F0000000000000000000000000000000000000
:1001000000000000000000000B0200080B020008C5
:100110000B0200080B0200080B0200080B0200088B
:100120000B0200080B0200080B0200080B0200087B
:100130000B0200080B0200080B0200080B0200086B
:100140000B0200080B0200080B0200080B0200085B
:10015000DFF80CD000F07EF800480047B118000826
:10016000284A00201A4B19680868B0E8F00F80F39D
:1001700009884FF0000080F311884EF00D0E704793
:100180000000000003480068006880F3088862B639
:1001900000DF00BF08ED00E0EFF309800C4B1A68A8
:1001A00020E9F00F106008B54FF0BF0080F3118810
:1001B00001F036FE4FF0000080F31188BDE80840E2
:1001C00019680868B0E8F00F80F30988704700BF2D
:1001D0009000002001B44FF0BF0080F3118801BCF3
:1001E000704701B44FF0000080F3118801BC7047E4
:1001F0000648804706480047FEE7FEE7FEE7FEE7C1
:10020000FEE7FEE7FEE7FEE7FEE7FEE72D0F00084C
:1002100051010008D2B201E000F8012B491EFBD2C7
:1002200070470022F6E710B504460846114602461C
:100230002046FFF7EFFF204610BD10B5044604E04E
:100240000B7800F8013B03B1491C521EF8D220463E
:1002500010BD0000064C074D06E0E06840F00103C9
:1002600094E8070098471034AC42F6D3FFF774FFC8
:1002700014330008343300080029816802D041F0AB
:10028000010101E021F00101816070470146002079
:100290008968490700D501207047C06C80B270475B
:1002A000014600208968090700D501207047000039
:1002B00010B542680E4B0C791A400B6842EA0422D2
:1002C0001343436083680B4A1340D1E9024222433F
:1002D0004C7943EA44031A438260C26A097C22F4DF
:1002E0007002491EC9B242EA0151C16210BD00004C
:1002F000FFFEF0FFFDF7F1FF70B5072509290AD9C8
:10030000C468A1F10A0606EB4606B540AC43B3400B
:100310001C43C46007E0046901EB4106B540AC43EF
:10032000B3401C4304611F23072A09D2446B521EA9
:1003300002EB820293409C4391400C43446370BDA6
:100340000D2A09D2046BD21F02EB820293409C4318
:1003500091400C43046370BDC46A0D3A02EB820203
:1003600093409C4391400C43C46270BD816841F04E
:100370000801816070470029816802D041F4A00122
:1003800001E021F4A00181607047816841F004011F
:1003900081607047642001F087FCFBE7FEE7000006
:1003A00086B001F045FE059000F02AFC00F040F810
:1003B000002201204FF46021CDE902128DF80400E3
:1003C000184C8DF805008DF8100000926946204603
:1003D000FFF76EFF0523012202212046FFF78CFF65
:1003E00001212046FFF748FF2046FFF7BFFF2046C8
:1003F000FFF756FF0028FAD12046FFF7C6FF204638
:10040000FFF744FF0028FAD101212046FFF7B3FF90
:10041000054D2046FFF741FF28800A2105A801F07D
:100420005DFCF6E70024014000000020704700005A
:1004300008B50420ADF8000000208DF803006946DF
:10044000014800F021F808BD0008014038B58020BF
:10045000ADF8000004208DF803000A4D03248DF848
:1004600002406946284600F00FF84020ADF8000031
:1004700018208DF803008DF802406946284600F0E8
:1004800003F838BD000801402DE9F041CB78002584
:1004900003F00F02DB0601D58B781A430B884FF06F
:1004A0000F0813F0FF0F4FF0010C1CD0D0F80040E4
:1004B0000E880CFA05F31E409E4210D1AF0008FAD8
:1004C00007F624EA060602FA07F43443CE78282E0B
:1004D00002D0482E02D002E0436100E003616D1CAF
:1004E000082DE5D304600B88FF2B1DD94468002537
:1004F00005F108060CFA06F30E881E409E420FD145
:10050000AF0008FA07F624EA060602FA07F43443B5
:10051000CE78282E00D14361CE78482E00D10361D9
:100520006D1C082DE4D34460BDE8F081F0B5144C97
:10053000002801DAE36900E06368420D120185B228
:10054000C0F301579540C0F30346032F05D0C20204
:100550000AD50322B240934307E023F07062636838
:1005600023F07063636002E0AB4343F0706201B15B
:100570002A43002801DAE261F0BD6260F0BD0000AC
:10058000000001400AB10161704741617047FEE718
:1005900070B50646002440F23F11204600F002F9F3
:1005A00000F030FA4FF49635304600F011FA641C32
:1005B000AC42F9D3BDE8704001220421014800F0AB
:1005C00019B80000000C014008B50121082000F016
:1005D000FFFA0420ADF8000003208DF8020010207F
:1005E0008DF8030069460248FFF74EFF08BD000082
:1005F000000C0140FFF7C6BF064B30B45B68203AE1
:10060000D2B21C68DB88534304EB430230BC00F0D9
:1006100021B80000640000202DE9F04107460D4696
:1006200040F23F140A4E08E021463846FFF7E4FF47
:1006300070688088201A84B26D1C2A78002A05D040
:100640007168601C80B289888842EDD2BDE8F08173
:10065000640000202DE9F74F0646904600270199D7
:1006600000F0A0F81C4D31E000F0CCF900244FF070
:100670000C094FF0800A4FF0010B17E0B0FBF9F1C5
:10068000CA000AFA02F138F817202141114201D1BB
:100690000C2805D90BFA04F10A4203D10C2801D920
:1006A000688800E0288800F093F9641C68688088F6
:1006B000A042E3D8012204210848FFF79BFF761CE3
:1006C000F6B23046019900F06DF87F1C6868C0886A
:1006D000B842C9D8BDE8FE8F64000020000C01407C
:1006E00001484068704700006400002010B586B0E3
:1006F0000121112000F06CFA01212448FFF716FFB8
:100700000121C80300F04CFA4FF48060ADF81400EA
:1007100003208DF8160018201D4C8DF8170005A930
:100720002046FFF7B1FEE014ADF8140005A92046FD
:10073000FFF7AAFEA014ADF8140005A92046FFF7A4
:10074000A3FE144C204600F0CFFA0021ADF80010B3
:100750004FF48270ADF80200ADF804100220ADF83D
:1007600006000120ADF808004002ADF80C10ADF80D
:100770000A00ADF80E106946204600F0E8FA0121A3
:10078000204600F0A7FA06B010BD000000112000BE
:1007900000100140003C00400149488070470000C3
:1007A0006400002010B50C460146202000F034F90A
:1007B0002146BDE81040212000F02EB901490880F3
:1007C000704700006400002010B5FFF7FDFEFFF742
:1007D0008DFF052001F044F84FF40041E52000F0C2
:1007E0001BF90121002000F017F94FF4807101205E
:1007F00000F012F94FF4E061022000F00DF941F22F
:100800003001032000F008F90021042000F004F971
:1008100040F20221082000F0FFF80021092000F03A
:10082000FBF800210A2000F0F7F800210C2000F06E
:10083000F3F800210D2000F0EFF800210F2000F068
:10084000EBF80021102000F0E7F80021112000F063
:10085000E3F80021122000F0DFF80021132000F05F
:10086000DBF8142000F0FCFF41F2B071102000F022
:10087000D3F840F23711112000F0CEF8052000F037
:10088000EFFF40F23911122000F0C6F8052000F009
:10089000E7FF4FF4E851132000F0BEF813212920A0
:1008A00000F0BAF8052000F0DBFF0021202000F066
:1008B000B3F80021212000F0AFF80621302000F02D
:1008C000ABF840F20111312000F0A6F803213220EC
:1008D00000F0A2F84FF48371352000F09DF840F647
:1008E0000231362000F098F840F20231372000F053
:1008F00093F840F20771382000F08EF80721392074
:1009000000F08AF84FF4C0613C2000F085F840F216
:100910000B213D2000F080F80021502000F07CF8F1
:10092000EF21512000F078F80021522000F074F8F7
:1009300040F23F11532000F06FF84FF41C5160203B
:1009400000F06AF80121612000F066F800216A20B9
:1009500000F062F80021802000F05EF80021812084
:1009600000F05AF80021822000F056F80021832080
:1009700000F052F80021842000F04EF8002185207C
:1009800000F04AF81021902000F046F80021922053
:1009900000F042F80321932000F03EF84FF48871F4
:1009A000952000F039F80021972000F035F800215B
:1009B000982000F031F841F21801032000F02CF8E3
:1009C000BDE8104040F27311072000F025B8000088
:1009D00070B50B4D0446010A284600F0B6F9802197
:1009E000284600F0ABF90028F9D1E1B2284600F022
:1009F000ACF98021284600F0A1F90028F9D170BD9A
:100A0000003C004010B5222000F02EF8BDE8104058
:100A1000722000F04FB8000070B50C4600F024F8CA
:100A2000722000F047F80E4D210A284600F08DF99B
:100A30008021284600F082F90028F9D1E1B2284649
:100A400000F083F98021284600F078F90028F9D1D8
:100A5000BDE87040012204210248FFF7CBBD000031
:100A6000003C0040000C014070B50546702000F0CD
:100A700021F80E4C0021204600F067F98021204625
:100A800000F05CF90028F9D12946204600F05DF914
:100A90008021204600F052F90028F9D1BDE87040CD
:100AA000012204210248FFF7A5BD0000003C0040E0
:100AB000000C014010B50446002204210748FFF74E
:100AC00099FD2146064C204600F03FF98021204642
:100AD00000F034F90028F9D110BD0000000C0140ED
:100AE000003C0040FEE7642001F0DEF8FBE77047C1
:100AF00008B51D208DF8000000208DF801000120B0
:100B00008DF802008DF80300684600F001F808BD7A
:100B100070B50F21C478027801234FF0E026DCB1D4
:100B2000124C246804F4E064C4F5E064250AC5F1BD
:100B30000404E9404578A54084780C402C43210109
:100B40000B4C1155007800F01F018B40400906EB5B
:100B50008000C0F8003170BD02F01F0083405009D2
:100B600006EB8000C0F8803170BD00000CED00E0A5
:100B700000E400E0024908430249086070470000B1
:100B80000000FA050CED00E0FFF706BB034A5168D0
:100B900021F44041014351607047000000100240C1
:100BA000044A0029D16901D0014300E08143D161A9
:100BB0007047000000100240044A0029116901D06A
:100BC000014300E0814311617047000000100240C2
:100BD000044A0029916901D0014300E081439161F9
:100BE0007047000000100240044A0029D16801D07B
:100BF000014300E08143D1607047000000100240D3
:100C000010B54FF48040FFF7C1FFBDE8104001214F
:100C10004FF40170FFF7DCBF10B501210220FFF790
:100C2000BFFF01210846FFF7BBFF0121BDE81040CF
:100C30000420FFF7CDBF0000224910B54A6812F02A
:100C40000C03214A03D0042B01D0082B26D00260CC
:100C50004A681E4B02F0F00212099C5C0268E240F6
:100C600042604C6804F4E064240A1C5D22FA04F437
:100C700084604C6804F460544FEAD4241B5D22FA6B
:100C800003F2C2604968114B01F440414FEA9131CF
:100C90001B1F595CB2FBF1F1016110BD4A684B6842
:100CA00002F470124FF0020413F4803F04EB9242FE
:100CB00002D04B689B0301D5054B00E0024B5A4321
:100CC000C5E700000010024000127A002C0000204E
:100CD00000093D000029018802D041F0400101E0F7
:100CE00021F0400101807047114910B588420AD1B6
:100CF000841401212046FFF777FF2046BDE810400D
:100D00000021FFF771BF0B49884202D10121041471
:100D100004E0094988420AD10121C4132046FFF7A3
:100D20004BFF2046BDE810400021FFF745BF10BD36
:100D30000030014000380040003C004002460020E6
:100D400012890A4200D0012070478181704730B576
:100D500002884C8802F441530A88CD8822438C884B
:100D60002C4322430C8922434C8922438C89224301
:100D7000CC8922431A430280828B22F40062828350
:100D8000098A018230BD000010B5FFF71DFD024841
:100D9000A0F10801486010BD6C000020F8B50E46B7
:100DA000044623492248091D50F8240051F8241014
:100DB000084340F001000121FFF70AFF4CB901216F
:100DC0000820FFF7B3FB1A480121001F0068FFF756
:100DD000E7FE18208DF8030015486946083830F8FA
:100DE0001400ADF8000003208DF80200114850F8FF
:100DF0002400FFF749FB04208DF803000C486946E6
:100E0000801F30F81400ADF800000A48001D50F8AB
:100E10002400FFF739FB074D31462D1F55F82400FC
:100E200000F036FC55F82400012100F01FFCF8BD4D
:100E3000F82000084000002038B504460C48012185
:100E400050F82400FFF7C4FE094869460A3830F814
:100E50001400ADF8000010208DF8030003208DF879
:100E60000200044850F82400FFF70EFB38BD0000D4
:100E700028210008480000200349044A31F81010D6
:100E800052F82000016170471E2100084800002030
:100E9000FFF768B922480021026842F480320260FC
:100EA0004FF4A063026801F1010112F4003F01D187
:100EB0009942F7D10168890330D51A490A6842F08E
:100EC00010020A600A6822F003020A600A6842F00F
:100ED00002020A604168416041684160416841F432
:100EE00080614160416821F47C114160416841F4B6
:100EF000E8114160016841F0807101600168890179
:100F0000FCD5416821F003014160416841F00201D4
:100F100041604168C1F381010229FAD170470000A4
:100F2000001002400020024000F0BEBF0F4810B584
:100F3000016841F00101016041680D4A11404160C2
:100F400001680C4A11400160016821F480210160B0
:100F5000416821F4FE0141604FF41F018160FFF7F9
:100F600099FF05494FF00060086010BD0010024075
:100F70000000FFF8FFFFF6FE08ED00E030B5048C3E
:100F800024F001040484058B048C1B0542EA1343FE
:100F900025F0F3050E4A2B4390420ED00D4A9042A5
:100FA0000BD0B0F1804F08D00B4A904205D00B4ACD
:100FB000904202D00A4A904202D124F0020201E09B
:100FC00024F00A020A4342F001010383018430BD88
:100FD000002C0140003401400004004000080040A3
:100FE000000C004070B5048C24F010040484068BBF
:100FF000048C26F473461B0746EA1343120643EAA1
:1010000012420D05104B2D0C98420ED00F4B9842FA
:101010000BD0B0F1804F08D00D4B984205D00D4B4E
:10102000984202D00C4B984205D124F0200129436C
:1010300041F0100104E024F0A0030B4343F0100141
:101040000283018470BD0000002C01400034014087
:101050000004004000080040000C00402DE9F04171
:10106000454F0421384600F0A3F9444E0025444C76
:10107000012827D00221384600F09AF901283DD1F5
:101080000221384600F088F8384600F08DF92081BA
:10109000A178A9B361780C294ED004F10E0232F880
:1010A000113073B332F8113000F57A701844208192
:1010B00032F81130A08900F57A701844A08122F826
:1010C00011504FE00421384600F066F8384600F031
:1010D0006DF9E080A188884201D3411A03E04FF600
:1010E000FF72511A01446181A08088B26FF4C3512C
:1010F000014442F20F72914204D22570BDE8F081A2
:1011000010E022E021780C29F8D2A0F2993240F2C6
:10111000AF439A42F2D2A0F5BE6026F81100491CF6
:101120002170EBE700F502702081A08900F50270C4
:10113000A0810120A07018E0A18947F23052511A15
:1011400008442081A58165700EE036F8112000F575
:101150007A701044208136F81120A08900F57A7049
:101160001044A081491C6170A57021893846BDE8F2
:10117000F04100F009BA0000000400400401002022
:10118000020000200029018802D041F0800101E026
:1011900021F0800101807047C94301827047002916
:1011A000018802D041F0010101E021F0010101803C
:1011B0007047000070B51E4E304600F03DF81D48E7
:1011C0004FF6FF7100248180472101804480014651
:1011D000304600F0FDF9174904200A310125088046
:1011E0004C808D80CC800C81304600F0EDF81148A9
:1011F00030211430018045804FF47A71C180048120
:101200000146304600F07AF90021304600F0B6F988
:1012100001213046FFF7B6FF01220621304600F0DB
:1012200065F93046BDE870400121FFF7B8BF000006
:1012300000040040E00000204B4910B5884202D174
:101240000121C41486E0B0F1804F09D0474988429B
:101250000DD101210220FFF7AFFC0021022064E044
:1012600001210846FFF7A8FC002101205DE040496C
:10127000884206D101210420FFF79EFC00210420B2
:1012800053E03C49884206D101210820FFF794FC35
:101290000021082049E03849884206D10121102068
:1012A000FFF78AFC002110203FE03449884206D134
:1012B00001212020FFF780FC0021202035E030496B
:1012C000884202D10121441444E02E49884202D1CF
:1012D0000121CC043EE02C49884202D101210C05B9
:1012E00038E02A49884202D101214C0532E02849E0
:1012F000884206D101214020FFF75EFC00214020FA
:1013000013E02449884206D101218020FFF754FCD4
:101310000021802009E0204988420AD1841501215A
:101320002046FFF749FC00212046BDE81040FFF7AA
:1013300043BC1A49884202D101210C040AE0184931
:10134000884202D101214C0404E0164988420AD1A6
:1013500001218C042046FFF747FC2046BDE81040E1
:101360000021FFF741BC10BD002C014000040040EB
:1013700000080040000C0040001000400014004035
:1013800000340140004C0140005001400054014035
:1013900000180040001C00400020004000400140B8
:1013A0000044014000480140808E7047008F704724
:1013B000038A002280890B4200EA010001D000B1BB
:1013C00001221046704700002DE9F05F0D460446EB
:1013D0000E884148DFF804C1DFF804A1DFF804E11A
:1013E0004988AA882B894FF0804B3EB3042E2ED01B
:1013F000082E268C34D026F480562684B4F81C900F
:10140000268C0F074FEA1748120629F473471B076B
:1014100047EA124242EA134384420AD0644508D0A4
:101420005C4506D0544504D0744502D02E48844211
:1014300044D126F4005040EA080042E02046FFF77D
:101440009DFDE9882046BDE8F05F00F09FB820468A
:10145000FFF7C8FDE9882046BDE8F05F00F09EB8C0
:1014600026F480762684A78B268C1B0527F0F307AD
:1014700042EA13434FEA01683B434FEA184884426B
:101480000AD0644508D05C4506D0544504D0744564
:1014900002D01548844204D126F4007040EA0800C6
:1014A00002E026F42060084340F48070A383208487
:1014B000E9882046BDE8F05F00F079B826F40240E4
:1014C000084340F48050A3832084E9882046BDE887
:1014D000F05F00F074B80000002C014000340140BF
:1014E0000004004000080040000C0040002A8289EF
:1014F00001D00A4300E08A438281704730B5028CF4
:1015000022F001020284028C8388048B22F0020202
:1015100024F073050C882C430D8915434A882A430F
:10152000114DA8420BD0114DA84208D0104DA84231
:1015300005D0104DA84202D00F4DA8420DD122F087
:1015400008054A8923F440732A4322F004058A8857
:101550002A438D891D43CB892B4383800483C9880B
:101560008186028430BD0000002C0140003401401F
:10157000004001400044014000480140028B22F03D
:1015800008020A430283704781867047028B22F06B
:101590000C020283028B0A4302837047028B22F4FF
:1015A00040620283028B42EA012202837047828BEF
:1015B00022F00C028283828B0A4382837047828BE3
:1015C00022F440628283828B42EA01228283704746
:1015D00030B502881B4B1C4C98420DD0A0420BD05A
:1015E000B0F1804F08D0194DA84205D0184DA8423F
:1015F00002D0184DA84203D122F070054A882A4330
:10160000154DA84206D0154DA84203D022F44075CE
:10161000CA882A4302808A8882850A88028598427D
:101620000AD0A04208D00E4A904205D00D4A9042FE
:1016300002D00D4A904201D1097A018601218182AE
:1016400030BD0000002C0140003401400004004087
:1016500000080040000C0040001000400014004052
:1016600000400140004401400048014000298189B8
:1016700002D041F4005101E021F400518181704712
:101680000246002012880A4200D001207047000064
:1016900030B50446008A85B00D464CF6FF7108400F
:1016A000E98801432182A1894EF6F3100140A88800
:1016B0002A8910436A890A431043A081A08A4FF601
:1016C000FF410840A9890143A1826846FFF7B4FAA7
:1016D0001B48844201D1039800E00298A1890904C3
:1016E000002900EBC00101EB0010296802DA4FEA83
:1016F000410101E04FEA8101B0FBF1F06422B0FB4F
:10170000F2F14FEA01114FEA11136FF018056B4324
:1017100000EB8300A3891D044FF0320306D503EBD1
:10172000C000B0FBF2F000F0070005E003EB001092
:10173000B0FBF2F000F00F000843208105B030BD8F
:1017400000380140C1F3080181807047FEE70000C6
:101750000FB4054B10B503A9044A029800F017F81E
:1017600010BC5DF814FB000075180008CC000020C8
:1017700002E008C8121F08C1002AFAD1704770475A
:10178000002001E001C1121F002AFBD170472DE9A2
:10179000F84F0546924699468846002759E0252885
:1017A00001D0514623E0002215F8011F10462E29D2
:1017B00015D115F8011F04222A290DD06FF02F032F
:1017C0002978A1F13004092C09D800EB800003EB43
:1017D000400008446D1CF3E758F8040B6D1C2B788F
:1017E00073B3632B08D0732B10D0514618464A466A
:1017F000904707F101072BE058F8043B8DF80030C3
:1018000000218DF801106E46012103E058F8046BA9
:101810004FF0FF3152074FF0000401D409E0641C7F
:1018200084420BDA8C42FADB325D002AF7D105E004
:10183000641C8C42FCDB305D0028F9D1274405E0B4
:101840000AE016F8010B51464A469047641EF8D24A
:101850006D1C28780028A2D13846BDE8F88F00001A
:101860000349484300E0401E0028FCD170470000B7
:10187000A086010070B5074D0446C1B22846FFF7A7
:1018800061FF40212846FFF7FBFE0028F9D02046E3
:1018900070BD00000044004010B5FFF7BDF9FFF730
:1018A00027F9FEF7D3FDBDE81040FFF783BC000029
:1018B0007FB50020FFF7C0FA0120FFF7BDFA022034
:1018C000FFF7BAFA0320FFF7B7FA39484FF4E131CE
:1018D000002401608480C480048184810C214181C2
:1018E00001462046FFF75AFAFFF74EFA4FF6FF750A
:1018F0002846FEF74DFE1F20FEF74EFF2846FEF756
:101900005DFFFEF7EDFE2BA10020FEF785FEFEF742
:10191000E7FEC0882DA1C0B2FEF77EFEFEF7E0FE16
:10192000C08830A14006000EFEF776FE21A133A04C
:10193000FFF70EFF25A133A0FFF70AFF29A132A070
:10194000FFF706FF0020FFF797FA0120FFF794FA50
:101950000220FFF791FA0320FFF78EFA4FF4407050
:10196000FFF708F9FFF798FF0225CDE9005402942C
:101970000023802226A12848039400F0A5FACDE98F
:10198000005402940023802224A12648039400F0EE
:101990009BFACDE9005402940023802222A125481D
:1019A000039400F091FA00F011FA04B0002070BD29
:1019B000D00000202053544D333220436F6E6E65AB
:1019C000637469766974792000000000204C696EA8
:1019D00065204465766963652072756E6E696E6711
:1019E00000000000206F6E2053544D3332313043DD
:1019F0002D4556414C202020000000000A0D2025D6
:101A000073000000202573002025730A0D000000DC
:101A10004D795461736B0000E70A00084164645417
:101A200061736B0095030008446174615461736BCA
:101A300000000000A103000870B50B4C05462068AB
:101A40004560E0682168854201F1040104D2A06B81
:101A5000BDE8704000F0B6B8606B00F0B3F8206BE2
:101A6000854200D2256370BD9000002070B5134CF4
:101A70006068002821D000F0CBF9114D2868C0B172
:101A800000F0E2FA00F0D6F8E868C568281D00F01A
:101A9000BFF8A068401EA0606068401E606000F053
:101AA000D3F8286B00F0DAF82846BDE8704000F063
:101AB000D5B8BDE8704000F0C7BA70BD90000020F6
:101AC000FC450020044C00BFFFF7D0FF2068012830
:101AD000FAD900F0E1F8F7E7204500202DE9F041C0
:101AE0000446002500F094F9264800F108024368F6
:101AF00000F110015BB9244B0027C2E900374FF415
:101B00008846C1E90076C3E900160123436044F228
:101B1000FF3394B31034660704D004F00706C6F10F
:101B200008063444661E9E4227D2164E13680836B5
:101B300001E01E4613465A68A24202D21A68002AE1
:101B4000F7D18B4219D03568196831605968103562
:101B5000091B20290DD91A1951600A495C60083106
:101B6000566800E021460C686768B742FAD31460F3
:101B70000A6059680268511A016000F065FA284647
:101B8000BDE8F081740000202001002010B5031F83
:101B90004FF08074A0F120001C6081614FF00001C3
:101BA000416140F8202910BD00F108014FF0FF32DB
:101BB000C0E90112C160016100210160704700218C
:101BC0000161704710B50B685A1C02D000F1080281
:101BD00002E0026904E05268546824689C42FAD921
:101BE00053684B6099608A60516008610168491CC4
:101BF000016010BD426853684B6043688B60536856
:101C000099605160416008610168491C016070473A
:101C1000D0E901128A60D0E90112516001694A6875
:101C2000824201D182684A60002202610868401E37
:101C30000860704710B5FEF7CDFA02480168491CEC
:101C4000016010BD8C00002003490868401E086038
:101C500001D1FEF7C6BA70478C00002010B50028ED
:101C600017D0A0F1100400F0D3F80A48616800E032
:101C70001046026853688B42FAD32260046005481C
:101C800061680838026811440160BDE8104000F046
:101C9000DBB910BD7C00002002494FF08050086085
:101CA0007047000004ED00E010B502000FD000F016
:101CB000AFF80948C16800688C18001DFFF7A8FF3D
:101CC0002046FFF7B9FE00F0BFF9002803D1BDE8B8
:101CD0001040FFF7E1BF10BD9000002010B5024694
:101CE0000B4600F095F810680F49C418CB6898426D
:101CF0000BD9A0420BD80DE014600868001DFFF757
:101D000087FF2046FFF798FE05E0A042F4D8C86898
:101D10008442F1D8146000F097F9002803D1BDE89F
:101D20001040FFF7B9BF10BD900000202DE9F04131
:101D3000244CE06920B1206A401C2062BDE8F0819B
:101D4000E068401CE060E0684FF0FF3670B9606BFF
:101D5000A16B6163A063A06A401CA062606B006815
:101D6000A8B1606BC068C06840682063E068216B00
:101D70008842E3D3144F606B006850B1606BC06859
:101D8000C568E1686868814205D22063D6E72663AA
:101D9000ECE72663D2E7281DFFF73AFFA86A18B1DF
:101DA00005F11800FFF734FFE86A6169884200D93D
:101DB000606100EB800007EB8000291DFFF71AFF30
:101DC000D9E7000090000020204500201FB5002426
:101DD0000094019402942346802209A10A480394A6
:101DE00000F072F8012809D1FEF7F4F90748012143
:101DF0008161C460BDE81F4000F038B81FBD00001D
:101E000049444C4500000000C51A0008900000201D
:101E10000248C169491CC161704700009000002060
:101E20001048C269104922B1012141627047521E17
:101E30004261426902EB820251F82220002A426983
:101E4000F5D002EB820201EB82014A68526801F18F
:101E500008034A609A4201D152684A60D168016021
:101E60007047000090000020204500200B4810B56E
:101E7000016841F47F010160016841F07F41016028
:101E80004FF0E0200649416107210161054900202A
:101E90000860FEF777F9002010BD000020ED00E09B
:101EA0003F1901008C000020064910B54FF080500A
:101EB0000860FEF78FF9FFF739FFBDE81040FEF725
:101EC00090B9000004ED00E02DE9FF5F8346DDE9F5
:101ED0000E688A4615464820109FFFF7FFFD040054
:101EE0004DD0A8008146E7B338462063D0B3A52281
:101EF0004946FEF78FF96FF0030101EB8501206B76
:101F00003546084420F007075146102204F13400FA
:101F1000FEF793F9002084F84300082D00D307252D
:101F2000E562201D6564FFF74AFE04F11800FFF723
:101F300046FEC5F108012461A16164625946384634
:101F4000039AFFF723FE2060B8F1000F01D0C8F814
:101F50000040FFF76FFE344DA868401CA860286859
:101F600001E006E008E0DFF8C48058B1A86990B34A
:101F700037E0FFF7B3FDB8E72046FFF76FFE4FF0FD
:101F8000FF344CE02C60A86801282AD15FF00007DC
:101F900007EB870108EB8100FFF706FE7F1C082F87
:101FA000F6D32248A030FFF7FFFD2048B430FFF7FA
:101FB000FBFD1E48C830FFF7F7FD1C48DC30FFF77B
:101FC000F3FD1A48F030FFF7EFFD1848A0306863C2
:101FD0001430A86305E0FFE72868C06AB04200D863
:101FE0002C60E06A2969884200D92861E96A491CA5
:101FF000E9626969884200D9686100EB800108EBF9
:102000008100211DFFF7F6FD0124FFF71DFEA869E1
:1020100028B12868C06AB04201D2FFF73DFE04B083
:102020002046BDE8F09F00009000002020450020E1
:1020300010B5FFF7FFFD0348C468FFF705FE204613
:1020400010BD0000900000202DE9F0470027FFF7A9
:10205000F1FD254CE069401EE061E06998BBA06895
:1020600088B3DFF888800026A8F1C8091AE0C068A4
:10207000C56805F11800FFF7CBFD281DFFF7C8FD67
:10208000E86A6169884200D9606100EB800109EB70
:102090008100291DFFF7AEFDE86A2168C96A884200
:1020A00000D30126D8F8001040460029DFD1206A6D
:1020B00028B909E0FFF73AFE206A401E2062206A34
:1020C0000028F7D105E009E0012E02D0606A01285E
:1020D00004D1002001276062FFF7DEFDFFF7B4FDA9
:1020E0003846BDE8F087000090000020E845002059
:1020F000200040000000020020000000200000003E
:102100000100002000020100002000020000020087
:10211000010000000D0009000600280017008000E3
:102120000020080010000000200000002000000037
:10213000200000002000000004000000100000004B
:102140000800000000000000000000000000000087
:10215000000000000000000000000000000000007F
:10216000000000000000000000000000000000006F
:1021700000000000000080018001800180018001DA
:102180008001800180018001800180018001800147
:10219000000000008001800100000000000000003D
:1021A0000000000000000000CC00CC00CC00CC00FF
:1021B000CC00CC0000000000000000000000000087
:1021C000000000000000000000000000000000000F
:1021D00000000000000000000000000000000000FF
:1021E000600C600C600C30063006FE1FFE1F3006CF
:1021F00038071803FE1FFE1F180318038C018C01FB
:102200008C01000000008000E003F80F9C0E8C1C85
:102210008C188C009800F801E007800E801C8C1848
:102220008C189C18B80CF00FE003800080000000B0
:10223000000000000000000000000E181B0C110C34
:1022400011061106110311039B018E01C038C06CE9
:1022500060446044304430441844186C0C3800002A
:10226000000000000000E001F0033807180618061F
:102270003003F001F000F8009C310E33061E061CFE
:10228000061C063FFC73F021000000000000000067
:1022900000000000000000000C000C000C000C000E
:1022A0000C000C0000000000000000000000000016
:1022B000000000000000000000000000000000001E
:1022C000000000000000000200038001C000C00008
:1022D000600060003000300030003000300030001E
:1022E0003000300060006000C000C00080010003CA
:1022F00000020000000020006000C000800180019A
:1023000000030003000600060006000600060006A3
:10231000000600060003000380018001C000600089
:10232000200000000000000000000000000000008D
:10233000C000C000D806F807E001300338070000ED
:10234000000000000000000000000000000000008D
:10235000000000000000000000000000000000007D
:1023600080018001800180018001FC3FFC3F8001F1
:102370008001800180018001000000000000000059
:10238000000000000000000000000000000000004D
:10239000000000000000000000000000000000003D
:1023A00000000000000080018001000100018000A9
:1023B000000000000000000000000000000000001D
:1023C000000000000000000000000000E007E0073F
:1023D00000000000000000000000000000000000FD
:1023E00000000000000000000000000000000000ED
:1023F00000000000000000000000000000000000DD
:10240000000000000000C000C0000000000000004C
:10241000000000000000000C000C00060006000692
:102420000003000300038003800180018001C000DD
:10243000C000C0006000600000000000000000005C
:10244000000000000000E003F007380E180C0C1824
:102450000C180C180C180C180C180C180C180C185C
:10246000180C380EF007E003000000000000000028
:1024700000000000000000018001C001F00198018F
:10248000880180018001800180018001800180013C
:102490008001800180018001000000000000000038
:1024A000000000000000E003F80F180C0C180C18D6
:1024B00000180018000C000600038001C000600036
:1024C00030001800FC1FFC1F00000000000000008E
:1024D000000000000000E001F807180E0C0C0C0CC6
:1024E000000C0006C003C007000C001800180C18F0
:1024F0000C18180CF807E0030000000000000000B2
:10250000000000000000000C000E000F000F800D06
:10251000C00C600C600C300C180C0C0CFC3FFC3F29
:10252000000C000C000C000C00000000000000007B
:10253000000000000000F80FF80F180018000C0051
:10254000EC03FC071C0E001C0018001800180C18E7
:102550001C0C180EF807E00300000000000000004B
:10256000000000000000C007F00F381C1818180009
:102570000C00CC03EC0F3C0E1C1C0C180C180C1897
:10258000181C380EF007E0030000000000000000F7
:10259000000000000000FC1FFC1F000C00060006ED
:1025A000000380038001C001C000E0006000600003
:1025B000700030003000300000000000000000001B
:1025C000000000000000E003F007380E180C180CA3
:1025D000180C3806F007F007180C0C180C180C181B
:1025E0000C18380CF80FE003000000000000000099
:1025F000000000000000E003F007380E1C0C0C186F
:102600000C180C181C1C381EF81BE0190018000CC4
:10261000000C1C0EF807F001000000000000000094
:1026200000000000000000000000000000000000AA
:102630008001800100000000000000000000000098
:102640000000000080018001000000000000000088
:10265000000000000000000000000000000000007A
:102660008001800100000000000000000000000068
:1026700000000000800180010001000180000000D6
:10268000000000000000000000000000000000004A
:10269000000000000010001C800FE003F80018008C
:1026A000F800E003800F001C001000000000000094
:1026B000000000000000000000000000000000001A
:1026C00000000000F81F000000000000F81F0000DC
:1026D00000000000000000000000000000000000FA
:1026E00000000000000000000000000000000000EA
:1026F0000000000008003800F001C007001F0018AB
:10270000001FC007F00138000800000000000000B2
:10271000000000000000E003F80F180C0C180C1863
:102720000018000C000600038001C000C000C000BB
:1027300000000000C000C000000000000000000019
:102740000000000000000000E00718180420C22963
:10275000224A114409440944094409221113E20C94
:10276000024004201818E0070000000000000000EC
:1027700000000000000080038003C006C006C00601
:10278000600C600C301830183018F83FF83F1C709F
:102790000C600C6006C006C00000000000000000D5
:1027A000000000000000FC03FC0F0C0C0C180C18BF
:1027B0000C180C0CFC07FC0F0C180C300C300C30F7
:1027C0000C300C18FC1FFC0700000000000000008B
:1027D000000000000000C007F01F38381C300C70EB
:1027E00006600600060006000600060006000660F9
:1027F0000C701C30F01FE00700000000000000001B
:10280000000000000000FE03FE0F060E061806186A
:102810000630063006300630063006300630061820
:102820000618060EFE0FFE03000000000000000068
:10283000000000000000FC3FFC3F0C000C000C00FE
:102840000C000C00FC1FFC1F0C000C000C000C000A
:102850000C000C00FC3FFC3F0000000000000000EA
:10286000000000000000F83FF83F180018001800B2
:1028700018001800F81FF81F18001800180018009A
:1028800018001800180018000000000000000000E8
:10289000000000000000E00FF83F3C780E6006E00A
:1028A00007C00300030003FE03FE03C007C006C009
:1028B0000EC03CF0F83FE00F0000000000000000F8
:1028C0000000000000000C300C300C300C300C30DC
:1028D0000C300C30FC3FFC3F0C300C300C300C301A
:1028E0000C300C300C300C300000000000000000F8
:1028F0000000000000008001800180018001800153
:1029000080018001800180018001800180018001BF
:1029100080018001800180010000000000000000B3
:102920000000000000000006000600060006000689
:10293000000600060006000600060006000618064F
:1029400018063807F003E001000000000000000056
:1029500000000000000006300618060C06060603FC
:102960008601C60066007600DE008E0106030606BC
:10297000060C06180630066000000000000000008B
:1029800000000000000018001800180018001800CF
:102990001800180018001800180018001800180077
:1029A00018001800F81FF81F0000000000000000C9
:1029B0000000000000000EE01EF01EF01EF036D8F1
:1029C00036D836D836D866CC66CC66CCC6C6C6C62F
:1029D000C6C6C6C686C386C300000000000000004D
:1029E0000000000000000C301C303C303C306C30EB
:1029F0006C30CC30CC308C310C330C330C360C3684
:102A00000C3C0C3C0C380C300000000000000000B6
:102A1000000000000000E007F81F1C380E70066080
:102A200003C003C003C003C003C003C003C00660EB
:102A30000E701C38F81FE0070000000000000000C6
:102A4000000000000000FC0FFC1F0C380C300C30A4
:102A50000C300C300C18FC1FFC070C000C000C0098
:102A60000C000C000C000C00000000000000000036
:102A7000000000000000E007F81F1C380E70066020
:102A800003E003C003C003C003C003C007E0066344
:102A90000E3F1C3CF83FE0F700C0000000000000C3
:102AA000000000000000FE0FFE1F06380630063052
:102AB00006300638FE1FFE0706030606060C06183B
:102AC0000618063006300660000000000000000016
:102AD000000000000000E003F80F1C0C0C180C189C
:102AE0000C001C00F803E00F001E00380630063012
:102AF0000E301C1CF80FE007000000000000000072
:102B0000000000000000FE7FFE7F80018001800148
:102B100080018001800180018001800180018001AD
:102B200080018001800180010000000000000000A1
:102B30000000000000000C300C300C300C300C3069
:102B40000C300C300C300C300C300C300C300C30A5
:102B50000C301818F81FE00700000000000000000B
:102B600000000000000003600630063006300C183C
:102B70000C180C18180C180C380E3006300670079C
:102B800060036003C001C0010000000000000000FD
:102B90000000000000000360C361C361C3616633CD
:102BA000663366336633663366336C1B6C1B6C1B93
:102BB0002C1A3C1E380E380E0000000000000000E9
:102BC0000000000000000FE00C7018303018700C8E
:102BD000600EC00780038003C003E006700C301C49
:102BE00018180C300E6007E0000000000000000024
:102BF00000000000000003C006600C301C383818CC
:102C0000300C6006E007C003800180018001800174
:102C100080018001800180010000000000000000B0
:102C2000000000000000FC7FFC7F00600030001806
:102C3000000C000600038001C00060003000180096
:102C40000C000600FE7FFE7F000000000000000078
:102C5000000000000000E003E0036000600060008E
:102C60006000600060006000600060006000600064
:102C70006000600060006000600060006000E003D1
:102C8000E0030000000030003000600060006000E1
:102C9000C000C000C000C0018001800180010003AD
:102CA0000003000300060006000000000000000012
:102CB000000000000000E003E00300030003000345
:102CC00000030003000300030003000300030003EC
:102CD0000003000300030003000300030003E003FC
:102CE000E003000000000000C001C00160036003B9
:102CF000600330063006180C180C000000000000BD
:102D000000000000000000000000000000000000C3
:102D100000000000000000000000000000000000B3
:102D200000000000000000000000000000000000A3
:102D3000000000000000FFFFFFFF00000000000097
:102D40000000000000000C000C000C000C000C0047
:102D50000C00000000000000000000000000000067
:102D60000000000000000000000000000000000063
:102D70000000000000000000000000000000000053
:102D8000F003F8071C0C0C0C000FF00FF80C0C0CE7
:102D90000C0C1C0FF80FF0180000000000000000E1
:102DA00000000000000018001800180018001800AB
:102DB000D803F80F380C18181818181818181818FD
:102DC0001818380CF80FD8030000000000000000AD
:102DD00000000000000000000000000000000000F3
:102DE000C003F007300E180C180018001800180067
:102DF000180C300EF007C0030000000000000000B7
:102E0000000000000000001800180018001800184A
:102E1000C01BF01F301C181818181818181818188C
:102E20001818301CF01FC01B00000000000000003C
:102E30000000000000000000000000000000000092
:102E4000C003F00F300C1818F81FF81F18001800F6
:102E50003818301CF00FC007000000000000000010
:102E6000000000000000800FC00FC000C000C000C4
:102E7000F007F007C000C000C000C000C000C000E4
:102E8000C000C000C000C000000000000000000042
:102E90000000000000000000000000000000000032
:102EA000E00DF80F180E0C0C0C0C0C0C0C0C0C0C90
:102EB0000C0C180EF80FE00D000C0C0C1C06F8079B
:102EC000F001000000001800180018001800180099
:102ED000D807F80F381C18181818181818181818C8
:102EE0001818181818181818000000000000000022
:102EF000000000000000C000C00000000000000052
:102F0000C000C000C000C000C000C000C000C000C1
:102F1000C000C000C000C0000000000000000000B1
:102F2000000000000000C000C00000000000000021
:102F3000C000C000C000C000C000C000C000C00091
:102F4000C000C000C000C000C000C000C000F80049
:102F50007800000000000C000C000C000C000C00BD
:102F60000C0C0C060C038C01CC006C00FC009C01CA
:102F70008C030C030C060C0C000000000000000089
:102F8000000000000000C000C000C000C000C00081
:102F9000C000C000C000C000C000C000C000C00031
:102FA000C000C000C000C000000000000000000021
:102FB0000000000000000000000000000000000011
:102FC0007C3CFF7EC7E383C183C183C183C183C1CE
:102FD00083C183C183C183C10000000000000000E1
:102FE00000000000000000000000000000000000E1
:102FF0009807F80F381C18181818181818181818E7
:103000001818181818181818000000000000000000
:1030100000000000000000000000000000000000B0
:10302000C003F00F300C18181818181818181818B2
:103030001818300CF00FC003000000000000000062
:103040000000000000000000000000000000000080
:10305000D803F80F380C181818181818181818185A
:103060001818380CF80FD8031800180018001800AA
:103070001800000000000000000000000000000038
:10308000C01BF01F301C181818181818181818181A
:103090001818301CF01FC01B00180018001800186A
:1030A0000018000000000000000000000000000008
:1030B000B007F00370003000300030003000300006
:1030C0003000300030003000000000000000000040
:1030D00000000000000000000000000000000000F0
:1030E000E003F003380E180C3800F003C007000CA2
:1030F000180C380EF007E00300000000000000008C
:1031000000000000000000008000C000C000C000FF
:10311000F007F007C000C000C000C000C000C00041
:10312000C000C000C00780070000000000000000D1
:10313000000000000000000000000000000000008F
:1031400018181818181818181818181818181818FF
:103150001818381CF01FE0190000000000000000E3
:10316000000000000000000000000000000000005F
:103170000C18180C180C180C3006300630066003BA
:1031800060036003C001C0010000000000000000F7
:10319000000000000000000000000000000000002F
:1031A000C141C141C36163636363636336363636CD
:1031B00036361C1C1C1C1C1C0000000000000000FB
:1031C00000000000000000000000000000000000FF
:1031D0001C38381C300C6006600360036003600319
:1031E0006006300C381C1C38000000000000000095
:1031F00000000000000000000000000000000000CF
:103200001830301830187018600C600CE00CC006D4
:10321000C00680038003800380018001C001F000AC
:10322000700000000000000000000000000000002E
:10323000FC1FFC1F000C000600038001C0006000A2
:1032400030001800FC1FFC1F000000000000000000
:1032500000000000000000038001C000C000C000AA
:10326000C000C000C000600060003000600040008E
:10327000C000C000C000C000C000C000800100034A
:1032800000000000000080018001800180018001B9
:103290008001800180018001800180018001800126
:1032A0008001800180018001800180018001800116
:1032B0008001000000006000C000C00180018001AA
:1032C000800180018001000300030006000300016B
:1032D000800180018001800180018001C0006000C8
:1032E00000000000000000000000000000000000DE
:1032F00000000000F010F81F080F000000000000A0
:1033000000000000000000000000000000000000BD
:10331000000000003433000800000020D00000004E
:103320007017000804340008D0000020584900003D
:103330008017000800000C0C0000000000000000D6
:103340000000000070FE70FE90019001000000007F
:103350007B0085FF70FE70FE90019001020406085C
:10336000000000000102030401020304060708092B
:1033700000440040001401400014014000140140CA
:1033800000140140001401400014014000080140F5
:1033900000100140000C01400000FFFF0000000091
:1033A0004421000810001800004400000000000044
:1033B000000000000000000000000000000000000D
:1033C000AAAAAAAA00000000000000000000000055
:1033D00000000000000000000000000000000000ED
:1033E00000000000000000000000000000000000DD
:1033F00000000000FFFFFFFF0000000000000000D1
:0434000000000000C8
:04000005080001519D
:00000001FF
